{
  "_format": "hh-sol-artifact-1",
  "contractName": "SampleForwarder",
  "sourceName": "contracts/SampleForwarder.sol",
  "abi": [
    {
      "inputs": [],
      "stateMutability": "nonpayable",
      "type": "constructor"
    },
    {
      "inputs": [
        {
          "internalType": "address",
          "name": "account",
          "type": "address"
        }
      ],
      "name": "AddressInsufficientBalance",
      "type": "error"
    },
    {
      "inputs": [
        {
          "internalType": "uint48",
          "name": "deadline",
          "type": "uint48"
        }
      ],
      "name": "ERC2771ForwarderExpiredRequest",
      "type": "error"
    },
    {
      "inputs": [
        {
          "internalType": "address",
          "name": "signer",
          "type": "address"
        },
        {
          "internalType": "address",
          "name": "from",
          "type": "address"
        }
      ],
      "name": "ERC2771ForwarderInvalidSigner",
      "type": "error"
    },
    {
      "inputs": [
        {
          "internalType": "uint256",
          "name": "requestedValue",
          "type": "uint256"
        },
        {
          "internalType": "uint256",
          "name": "msgValue",
          "type": "uint256"
        }
      ],
      "name": "ERC2771ForwarderMismatchedValue",
      "type": "error"
    },
    {
      "inputs": [
        {
          "internalType": "address",
          "name": "target",
          "type": "address"
        },
        {
          "internalType": "address",
          "name": "forwarder",
          "type": "address"
        }
      ],
      "name": "ERC2771UntrustfulTarget",
      "type": "error"
    },
    {
      "inputs": [],
      "name": "FailedInnerCall",
      "type": "error"
    },
    {
      "inputs": [
        {
          "internalType": "address",
          "name": "account",
          "type": "address"
        },
        {
          "internalType": "uint256",
          "name": "currentNonce",
          "type": "uint256"
        }
      ],
      "name": "InvalidAccountNonce",
      "type": "error"
    },
    {
      "inputs": [],
      "name": "InvalidShortString",
      "type": "error"
    },
    {
      "inputs": [
        {
          "internalType": "string",
          "name": "str",
          "type": "string"
        }
      ],
      "name": "StringTooLong",
      "type": "error"
    },
    {
      "anonymous": false,
      "inputs": [],
      "name": "EIP712DomainChanged",
      "type": "event"
    },
    {
      "anonymous": false,
      "inputs": [
        {
          "indexed": true,
          "internalType": "address",
          "name": "signer",
          "type": "address"
        },
        {
          "indexed": false,
          "internalType": "uint256",
          "name": "nonce",
          "type": "uint256"
        },
        {
          "indexed": false,
          "internalType": "bool",
          "name": "success",
          "type": "bool"
        }
      ],
      "name": "ExecutedForwardRequest",
      "type": "event"
    },
    {
      "inputs": [],
      "name": "eip712Domain",
      "outputs": [
        {
          "internalType": "bytes1",
          "name": "fields",
          "type": "bytes1"
        },
        {
          "internalType": "string",
          "name": "name",
          "type": "string"
        },
        {
          "internalType": "string",
          "name": "version",
          "type": "string"
        },
        {
          "internalType": "uint256",
          "name": "chainId",
          "type": "uint256"
        },
        {
          "internalType": "address",
          "name": "verifyingContract",
          "type": "address"
        },
        {
          "internalType": "bytes32",
          "name": "salt",
          "type": "bytes32"
        },
        {
          "internalType": "uint256[]",
          "name": "extensions",
          "type": "uint256[]"
        }
      ],
      "stateMutability": "view",
      "type": "function"
    },
    {
      "inputs": [
        {
          "components": [
            {
              "internalType": "address",
              "name": "from",
              "type": "address"
            },
            {
              "internalType": "address",
              "name": "to",
              "type": "address"
            },
            {
              "internalType": "uint256",
              "name": "value",
              "type": "uint256"
            },
            {
              "internalType": "uint256",
              "name": "gas",
              "type": "uint256"
            },
            {
              "internalType": "uint48",
              "name": "deadline",
              "type": "uint48"
            },
            {
              "internalType": "bytes",
              "name": "data",
              "type": "bytes"
            },
            {
              "internalType": "bytes",
              "name": "signature",
              "type": "bytes"
            }
          ],
          "internalType": "struct ERC2771Forwarder.ForwardRequestData",
          "name": "request",
          "type": "tuple"
        }
      ],
      "name": "execute",
      "outputs": [],
      "stateMutability": "payable",
      "type": "function"
    },
    {
      "inputs": [
        {
          "components": [
            {
              "internalType": "address",
              "name": "from",
              "type": "address"
            },
            {
              "internalType": "address",
              "name": "to",
              "type": "address"
            },
            {
              "internalType": "uint256",
              "name": "value",
              "type": "uint256"
            },
            {
              "internalType": "uint256",
              "name": "gas",
              "type": "uint256"
            },
            {
              "internalType": "uint48",
              "name": "deadline",
              "type": "uint48"
            },
            {
              "internalType": "bytes",
              "name": "data",
              "type": "bytes"
            },
            {
              "internalType": "bytes",
              "name": "signature",
              "type": "bytes"
            }
          ],
          "internalType": "struct ERC2771Forwarder.ForwardRequestData[]",
          "name": "requests",
          "type": "tuple[]"
        },
        {
          "internalType": "address payable",
          "name": "refundReceiver",
          "type": "address"
        }
      ],
      "name": "executeBatch",
      "outputs": [],
      "stateMutability": "payable",
      "type": "function"
    },
    {
      "inputs": [
        {
          "internalType": "address",
          "name": "owner",
          "type": "address"
        }
      ],
      "name": "nonces",
      "outputs": [
        {
          "internalType": "uint256",
          "name": "",
          "type": "uint256"
        }
      ],
      "stateMutability": "view",
      "type": "function"
    },
    {
      "inputs": [
        {
          "components": [
            {
              "internalType": "address",
              "name": "from",
              "type": "address"
            },
            {
              "internalType": "address",
              "name": "to",
              "type": "address"
            },
            {
              "internalType": "uint256",
              "name": "value",
              "type": "uint256"
            },
            {
              "internalType": "uint256",
              "name": "gas",
              "type": "uint256"
            },
            {
              "internalType": "uint48",
              "name": "deadline",
              "type": "uint48"
            },
            {
              "internalType": "bytes",
              "name": "data",
              "type": "bytes"
            },
            {
              "internalType": "bytes",
              "name": "signature",
              "type": "bytes"
            }
          ],
          "internalType": "struct ERC2771Forwarder.ForwardRequestData",
          "name": "request",
          "type": "tuple"
        }
      ],
      "name": "verify",
      "outputs": [
        {
          "internalType": "bool",
          "name": "",
          "type": "bool"
        }
      ],
      "stateMutability": "view",
      "type": "function"
    }
  ],
  "bytecode": "0x6101606040523480156200001257600080fd5b506040518060400160405280600f81526020017f53616d706c65466f727761726465720000000000000000000000000000000000815250806040518060400160405280600181526020017f3100000000000000000000000000000000000000000000000000000000000000815250620000966000836200013760201b90919060201c565b6101208181525050620000b46001826200013760201b90919060201c565b6101408181525050818051906020012060e08181525050808051906020012061010081815250504660a08181525050620000f36200018f60201b60201c565b608081815250503073ffffffffffffffffffffffffffffffffffffffff1660c08173ffffffffffffffffffffffffffffffffffffffff1681525050505050620007e7565b60006020835110156200015d576200015583620001ec60201b60201c565b905062000189565b826200016f836200025960201b60201c565b6000019081620001809190620004dd565b5060ff60001b90505b92915050565b60007f8b73c3c69bb8fe3d512ecc4cf759cc79239f7b179b0ffacaa9a75d522b39400f60e051610100514630604051602001620001d195949392919062000635565b60405160208183030381529060405280519060200120905090565b600080829050601f815111156200023c57826040517f305a27a900000000000000000000000000000000000000000000000000000000815260040162000233919062000721565b60405180910390fd5b8051816200024a9062000777565b60001c1760001b915050919050565b6000819050919050565b600081519050919050565b7f4e487b7100000000000000000000000000000000000000000000000000000000600052604160045260246000fd5b7f4e487b7100000000000000000000000000000000000000000000000000000000600052602260045260246000fd5b60006002820490506001821680620002e557607f821691505b602082108103620002fb57620002fa6200029d565b5b50919050565b60008190508160005260206000209050919050565b60006020601f8301049050919050565b600082821b905092915050565b600060088302620003657fffffffffffffffffffffffffffffffffffffffffffffffffffffffffffffffff8262000326565b62000371868362000326565b95508019841693508086168417925050509392505050565b6000819050919050565b6000819050919050565b6000620003be620003b8620003b28462000389565b62000393565b62000389565b9050919050565b6000819050919050565b620003da836200039d565b620003f2620003e982620003c5565b84845462000333565b825550505050565b600090565b62000409620003fa565b62000416818484620003cf565b505050565b5b818110156200043e5762000432600082620003ff565b6001810190506200041c565b5050565b601f8211156200048d57620004578162000301565b620004628462000316565b8101602085101562000472578190505b6200048a620004818562000316565b8301826200041b565b50505b505050565b600082821c905092915050565b6000620004b26000198460080262000492565b1980831691505092915050565b6000620004cd83836200049f565b9150826002028217905092915050565b620004e88262000263565b67ffffffffffffffff8111156200050457620005036200026e565b5b620005108254620002cc565b6200051d82828562000442565b600060209050601f83116001811462000555576000841562000540578287015190505b6200054c8582620004bf565b865550620005bc565b601f198416620005658662000301565b60005b828110156200058f5784890151825560018201915060208501945060208101905062000568565b86831015620005af5784890151620005ab601f8916826200049f565b8355505b6001600288020188555050505b505050505050565b6000819050919050565b620005d981620005c4565b82525050565b620005ea8162000389565b82525050565b600073ffffffffffffffffffffffffffffffffffffffff82169050919050565b60006200061d82620005f0565b9050919050565b6200062f8162000610565b82525050565b600060a0820190506200064c6000830188620005ce565b6200065b6020830187620005ce565b6200066a6040830186620005ce565b620006796060830185620005df565b62000688608083018462000624565b9695505050505050565b600082825260208201905092915050565b60005b83811015620006c3578082015181840152602081019050620006a6565b60008484015250505050565b6000601f19601f8301169050919050565b6000620006ed8262000263565b620006f9818562000692565b93506200070b818560208601620006a3565b6200071681620006cf565b840191505092915050565b600060208201905081810360008301526200073d8184620006e0565b905092915050565b600081519050919050565b6000819050602082019050919050565b60006200076e8251620005c4565b80915050919050565b6000620007848262000745565b82620007908462000750565b90506200079d8162000760565b92506020821015620007e057620007db7fffffffffffffffffffffffffffffffffffffffffffffffffffffffffffffffff8360200360080262000326565b831692505b5050919050565b60805160a05160c05160e051610100516101205161014051611a51620008426000396000610535015260006104fa01526000610f3301526000610f1201526000610cb501526000610d0b01526000610d340152611a516000f3fe60806040526004361061004a5760003560e01c806319d8d38c1461004f5780637ecebe001461008c57806384b0196e146100c9578063ccf96b4a146100fa578063df905caf14610116575b600080fd5b34801561005b57600080fd5b5061007660048036038101906100719190610fb1565b610132565b6040516100839190611015565b60405180910390f35b34801561009857600080fd5b506100b360048036038101906100ae919061108e565b610165565b6040516100c091906110d4565b60405180910390f35b3480156100d557600080fd5b506100de6101ae565b6040516100f197969594939291906112a0565b60405180910390f35b610114600480360381019061010f91906113c7565b610258565b005b610130600480360381019061012b9190610fb1565b6103b4565b005b60008060008061014185610446565b509250925092508280156101525750815b801561015b5750805b9350505050919050565b6000600260008373ffffffffffffffffffffffffffffffffffffffff1673ffffffffffffffffffffffffffffffffffffffff168152602001908152602001600020549050919050565b6000606080600080600060606101c26104f1565b6101ca61052c565b46306000801b600067ffffffffffffffff8111156101eb576101ea611427565b5b6040519080825280602002602001820160405280156102195781602001602082028036833780820191505090505b507f0f00000000000000000000000000000000000000000000000000000000000000959493929190965096509650965096509650965090919293949596565b60008073ffffffffffffffffffffffffffffffffffffffff168273ffffffffffffffffffffffffffffffffffffffff1614905060008060005b86869050811015610352578686828181106102af576102ae611456565b5b90506020028101906102c19190611494565b60400135836102d091906114eb565b925060006103028888848181106102ea576102e9611456565b5b90506020028101906102fc9190611494565b86610567565b9050806103405787878381811061031c5761031b611456565b5b905060200281019061032e9190611494565b604001358361033d91906114eb565b92505b508061034b9061151f565b9050610291565b503482146103995781346040517f70647f79000000000000000000000000000000000000000000000000000000008152600401610390929190611567565b60405180910390fd5b600081146103ac576103ab848261079c565b5b505050505050565b80604001353414610402578060400135346040517f70647f790000000000000000000000000000000000000000000000000000000081526004016103f9929190611567565b60405180910390fd5b61040d816001610567565b610443576040517f1425ea4200000000000000000000000000000000000000000000000000000000815260040160405180910390fd5b50565b60008060008060008061045887610889565b91509150610477876020016020810190610472919061108e565b610a06565b4288608001602081019061048b91906115ce565b65ffffffffffff1610158380156104df57508860000160208101906104b0919061108e565b73ffffffffffffffffffffffffffffffffffffffff168373ffffffffffffffffffffffffffffffffffffffff16145b83955095509550955050509193509193565b606061052760007f0000000000000000000000000000000000000000000000000000000000000000610aa290919063ffffffff16565b905090565b606061056260017f0000000000000000000000000000000000000000000000000000000000000000610aa290919063ffffffff16565b905090565b600080600080600061057887610446565b9350935093509350851561068757836105dc5786602001602081019061059e919061108e565b306040517fd2650cd10000000000000000000000000000000000000000000000000000000081526004016105d39291906115fb565b60405180910390fd5b82610630578660800160208101906105f491906115ce565b6040517f94eef58a0000000000000000000000000000000000000000000000000000000081526004016106279190611633565b60405180910390fd5b816106865780876000016020810190610649919061108e565b6040517fc845a05600000000000000000000000000000000000000000000000000000000815260040161067d9291906115fb565b60405180910390fd5b5b8380156106915750815b801561069a5750825b156107925760006106aa82610b52565b905060008860600135905060008960200160208101906106ca919061108e565b905060008a60400135905060008b8060a001906106e7919061164e565b8d60000160208101906106fa919061108e565b60405160200161070c93929190611738565b6040516020818303038152906040529050600080600083516020850186888af19a505a905061073b818e610ba9565b8673ffffffffffffffffffffffffffffffffffffffff167f842fb24a83793558587a3dab2be7674da4a51d09c5542d6dd354e5d0ea70813c878d604051610783929190611762565b60405180910390a25050505050505b5050505092915050565b804710156107e157306040517fcd7860590000000000000000000000000000000000000000000000000000000081526004016107d8919061178b565b60405180910390fd5b60008273ffffffffffffffffffffffffffffffffffffffff1682604051610807906117cc565b60006040518083038185875af1925050503d8060008114610844576040519150601f19603f3d011682016040523d82523d6000602084013e610849565b606091505b5050905080610884576040517f1425ea4200000000000000000000000000000000000000000000000000000000815260040160405180910390fd5b505050565b6000806000806109cd858060c001906108a2919061164e565b8080601f016020809104026020016040519081016040528093929190818152602001838380828437600081840152601f19601f820116905080830192505050505050506109bf7f7f96328b83274ebc7c1cf4f7a3abda602b51a78b7fa1d86a2ce353d75e587cac88600001602081019061091c919061108e565b89602001602081019061092f919061108e565b8a604001358b606001356109548d600001602081019061094f919061108e565b610165565b8d608001602081019061096791906115ce565b8e8060a00190610977919061164e565b6040516109859291906117e1565b60405180910390206040516020016109a49897969594939291906117fa565b60405160208183030381529060405280519060200120610bc7565b610be190919063ffffffff16565b5091509150600060038111156109e6576109e5611878565b5b8160038111156109f9576109f8611878565b5b1482935093505050915091565b60008030604051602401610a1a919061178b565b60405160208183030381529060405263572b6c0560e01b6020820180517bffffffffffffffffffffffffffffffffffffffffffffffffffffffff83818316178352505050509050600080600060206000855160208701895afa92503d91506000519050828015610a8b575060208210155b8015610a975750600081115b945050505050919050565b606060ff60001b8314610abf57610ab883610c3d565b9050610b4c565b818054610acb906118d6565b80601f0160208091040260200160405190810160405280929190818152602001828054610af7906118d6565b8015610b445780601f10610b1957610100808354040283529160200191610b44565b820191906000526020600020905b815481529060010190602001808311610b2757829003601f168201915b505050505090505b92915050565b6000600260008373ffffffffffffffffffffffffffffffffffffffff1673ffffffffffffffffffffffffffffffffffffffff1681526020019081526020016000206000815480929190600101919050559050919050565b603f8160600135610bba9190611936565b821015610bc357fe5b5050565b6000610bda610bd4610cb1565b83610d68565b9050919050565b60008060006041845103610c265760008060006020870151925060408701519150606087015160001a9050610c1888828585610da9565b955095509550505050610c36565b60006002855160001b9250925092505b9250925092565b60606000610c4a83610e9d565b90506000602067ffffffffffffffff811115610c6957610c68611427565b5b6040519080825280601f01601f191660200182016040528015610c9b5781602001600182028036833780820191505090505b5090508181528360208201528092505050919050565b60007f000000000000000000000000000000000000000000000000000000000000000073ffffffffffffffffffffffffffffffffffffffff163073ffffffffffffffffffffffffffffffffffffffff16148015610d2d57507f000000000000000000000000000000000000000000000000000000000000000046145b15610d5a577f00000000000000000000000000000000000000000000000000000000000000009050610d65565b610d62610eed565b90505b90565b60006040517f190100000000000000000000000000000000000000000000000000000000000081528360028201528260228201526042812091505092915050565b60008060007f7fffffffffffffffffffffffffffffff5d576e7357a4501ddfe92f46681b20a08460001c1115610de9576000600385925092509250610e93565b600060018888888860405160008152602001604052604051610e0e9493929190611983565b6020604051602081039080840390855afa158015610e30573d6000803e3d6000fd5b505050602060405103519050600073ffffffffffffffffffffffffffffffffffffffff168173ffffffffffffffffffffffffffffffffffffffff1603610e8457600060016000801b93509350935050610e93565b8060008060001b935093509350505b9450945094915050565b60008060ff8360001c169050601f811115610ee4576040517fb3512b0c00000000000000000000000000000000000000000000000000000000815260040160405180910390fd5b80915050919050565b60007f8b73c3c69bb8fe3d512ecc4cf759cc79239f7b179b0ffacaa9a75d522b39400f7f00000000000000000000000000000000000000000000000000000000000000007f00000000000000000000000000000000000000000000000000000000000000004630604051602001610f689594939291906119c8565b60405160208183030381529060405280519060200120905090565b600080fd5b600080fd5b600080fd5b600060e08284031215610fa857610fa7610f8d565b5b81905092915050565b600060208284031215610fc757610fc6610f83565b5b600082013567ffffffffffffffff811115610fe557610fe4610f88565b5b610ff184828501610f92565b91505092915050565b60008115159050919050565b61100f81610ffa565b82525050565b600060208201905061102a6000830184611006565b92915050565b600073ffffffffffffffffffffffffffffffffffffffff82169050919050565b600061105b82611030565b9050919050565b61106b81611050565b811461107657600080fd5b50565b60008135905061108881611062565b92915050565b6000602082840312156110a4576110a3610f83565b5b60006110b284828501611079565b91505092915050565b6000819050919050565b6110ce816110bb565b82525050565b60006020820190506110e960008301846110c5565b92915050565b60007fff0000000000000000000000000000000000000000000000000000000000000082169050919050565b611124816110ef565b82525050565b600081519050919050565b600082825260208201905092915050565b60005b83811015611164578082015181840152602081019050611149565b60008484015250505050565b6000601f19601f8301169050919050565b600061118c8261112a565b6111968185611135565b93506111a6818560208601611146565b6111af81611170565b840191505092915050565b6111c381611050565b82525050565b6000819050919050565b6111dc816111c9565b82525050565b600081519050919050565b600082825260208201905092915050565b6000819050602082019050919050565b611217816110bb565b82525050565b6000611229838361120e565b60208301905092915050565b6000602082019050919050565b600061124d826111e2565b61125781856111ed565b9350611262836111fe565b8060005b8381101561129357815161127a888261121d565b975061128583611235565b925050600181019050611266565b5085935050505092915050565b600060e0820190506112b5600083018a61111b565b81810360208301526112c78189611181565b905081810360408301526112db8188611181565b90506112ea60608301876110c5565b6112f760808301866111ba565b61130460a08301856111d3565b81810360c08301526113168184611242565b905098975050505050505050565b600080fd5b600080fd5b600080fd5b60008083601f84011261134957611348611324565b5b8235905067ffffffffffffffff81111561136657611365611329565b5b6020830191508360208202830111156113825761138161132e565b5b9250929050565b600061139482611030565b9050919050565b6113a481611389565b81146113af57600080fd5b50565b6000813590506113c18161139b565b92915050565b6000806000604084860312156113e0576113df610f83565b5b600084013567ffffffffffffffff8111156113fe576113fd610f88565b5b61140a86828701611333565b9350935050602061141d868287016113b2565b9150509250925092565b7f4e487b7100000000000000000000000000000000000000000000000000000000600052604160045260246000fd5b7f4e487b7100000000000000000000000000000000000000000000000000000000600052603260045260246000fd5b600080fd5b600080fd5b600080fd5b60008235600160e0038336030381126114b0576114af611485565b5b80830191505092915050565b7f4e487b7100000000000000000000000000000000000000000000000000000000600052601160045260246000fd5b60006114f6826110bb565b9150611501836110bb565b9250828201905080821115611519576115186114bc565b5b92915050565b600061152a826110bb565b91507fffffffffffffffffffffffffffffffffffffffffffffffffffffffffffffffff820361155c5761155b6114bc565b5b600182019050919050565b600060408201905061157c60008301856110c5565b61158960208301846110c5565b9392505050565b600065ffffffffffff82169050919050565b6115ab81611590565b81146115b657600080fd5b50565b6000813590506115c8816115a2565b92915050565b6000602082840312156115e4576115e3610f83565b5b60006115f2848285016115b9565b91505092915050565b600060408201905061161060008301856111ba565b61161d60208301846111ba565b9392505050565b61162d81611590565b82525050565b60006020820190506116486000830184611624565b92915050565b6000808335600160200384360303811261166b5761166a611485565b5b80840192508235915067ffffffffffffffff82111561168d5761168c61148a565b5b6020830192506001820236038313156116a9576116a861148f565b5b509250929050565b600081905092915050565b82818337600083830152505050565b60006116d783856116b1565b93506116e48385846116bc565b82840190509392505050565b60008160601b9050919050565b6000611708826116f0565b9050919050565b600061171a826116fd565b9050919050565b61173261172d82611050565b61170f565b82525050565b60006117458285876116cb565b91506117518284611721565b601482019150819050949350505050565b600060408201905061177760008301856110c5565b6117846020830184611006565b9392505050565b60006020820190506117a060008301846111ba565b92915050565b50565b60006117b66000836116b1565b91506117c1826117a6565b600082019050919050565b60006117d7826117a9565b9150819050919050565b60006117ee8284866116cb565b91508190509392505050565b600061010082019050611810600083018b6111d3565b61181d602083018a6111ba565b61182a60408301896111ba565b61183760608301886110c5565b61184460808301876110c5565b61185160a08301866110c5565b61185e60c0830185611624565b61186b60e08301846111d3565b9998505050505050505050565b7f4e487b7100000000000000000000000000000000000000000000000000000000600052602160045260246000fd5b7f4e487b7100000000000000000000000000000000000000000000000000000000600052602260045260246000fd5b600060028204905060018216806118ee57607f821691505b602082108103611901576119006118a7565b5b50919050565b7f4e487b7100000000000000000000000000000000000000000000000000000000600052601260045260246000fd5b6000611941826110bb565b915061194c836110bb565b92508261195c5761195b611907565b5b828204905092915050565b600060ff82169050919050565b61197d81611967565b82525050565b600060808201905061199860008301876111d3565b6119a56020830186611974565b6119b260408301856111d3565b6119bf60608301846111d3565b95945050505050565b600060a0820190506119dd60008301886111d3565b6119ea60208301876111d3565b6119f760408301866111d3565b611a0460608301856110c5565b611a1160808301846111ba565b969550505050505056fea2646970667358221220c05351431d52bc90de76794027eb8f20dce237036b08cae62f8f79459b2871bf64736f6c63430008140033",
  "linkReferences": {},
  "deployedLinkReferences": {}
}